:10110000B240805A20013F405E133E4000023D4005
:1011100000020D9E0524FE4F00001E530E9DFB2B6A
:101120003F4000023D4008020D9F0524CF430000D0
:101130001F530F9DFB2B3040A01130403E11001378
:101140000E430E9F052C034303431E530E9FFB2BA0
:101150003041C2432100C2432900C2432600C2439A
:101160002E00F2432200F2432A003041C243000025
:10117000C2430200C24358003041A24202022F4241
:10118000B012CC12F2D030005700F2D0100026007E
:10119000F2D010002200D2D32E00D2D32A00304148
:1011A0003140000AB240805A2001C2430002B0120E
:1011B0005211B0126C11B0127A11B0122A122E42D2
:1011C0005F4200021FF3052003435F4200021FF34A
:1011D000FB27D2C300023E53F3230B4E3A40FE12CC
:1011E0005F4200021FF3FC270B9306383B9003007D
:1011F00003383B90030013240E4B1E530F4E0C304C
:101200000B4F0B110B110F4B0F5F0F5B0F5B0B4E57
:101210000B8FD2C30002E43F3F500300F13F8A121C
:10122000D2E32100E93F30405613B240040260018E
:10123000B2D020006001B240205966013F4000104A
:10124000034303430343034303430343034303436E
:10125000034303430343034303430343034303435E
:10126000034303430343034303430343034303434E
:10127000034303430343034303430343034303433E
:101280003F50E0FFDD23B2D01000660132D2304182
:1012900000130013001300130F12A2922E010B2053
:1012A0001F4276011F820602824F0402924276019B
:1012B000060292D300023F410013001300130013F3
:1012C0000013001300130013001300130E4F5F42AE
:1012D00057003FF007000F9E0E245F4257003FF07B
:1012E00007000E9F0934F25357005F4257003FF04A
:1012F00007000F9EF2233041D2535700F63FF29081
:10130000E2FF56001E24F290050056000E24B29013
:10131000F4000402032CD25356003041B290F50081
:1013200004020228F253560030415F4257003FF05A
:1013300007001F93F93BF2535700F240600056003C
:1013400030415F4257003FF007003F900700EC3705
:0E135000D2535700F23F0F123F4102DFFE3F23
:10FFE0003A1190129212941296129812BA12BC12EE
:10FFF000BE12C012C212C412C612C812CA12001116
:0400000300001100E8
:00000001FF
