:10110000B240805A20013F408C133E4000023D40D7
:1011100000020D9E0524FE4F00001E530E9DFB2B6A
:101120003F4000023D4008020D9F0524CF430000D0
:101130001F530F9DFB2B3040A21130403E11001376
:101140000E430E9F052C034303431E530E9FFB2BA0
:101150003041C2432100C2432900C2432600C2439A
:101160002E00F240FDFF2200F2432A003041C2432C
:101170000000C2430200C24358003041A2420402B0
:101180002F42B012AE12F2D030005700F2D0100051
:101190002600F2D010002200D2D32E00D2D32A0093
:1011A00030413140F809B240805A2001C243020266
:1011B000B0125211B0126E11B0127C11B0120C129A
:1011C000D2C321002A433840E012394048135F421D
:1011D00002021FF304243A531124D2C302025F42D5
:1011E00020002FF3F4232B4289120F930224D2D331
:1011F00021003B533BB00080F737E93F88122A4378
:10120000D2C32100EA3F315230408413B24004027D
:101210006001B2D020006001B240205966013F4019
:1012200000100343034303430343034303430343C4
:10123000034303430343034303430343034303437E
:10124000034303430343034303430343034303436E
:10125000034303430343034303430343034303435E
:1012600003433F50E0FFDD23B2D01000660132D2CD
:10127000304100130013001300130F12A2922E012D
:101280000B201F4276011F820602824F000292420B
:101290007601060292D302023F41001300130013AD
:1012A00000130013001300130013001300130E4F5C
:1012B0005F4257003FF007000F9E0E245F42570029
:1012C0003FF007000E9F0934F25357005F4257006A
:1012D0003FF007000F9EF2233041D2535700F63FF4
:1012E000F290E2FF56001E24F290050056000E24F4
:1012F000B290F4000002032CD25356003041B29059
:10130000F50000020228F253560030415F425700B8
:101310003FF007001F93F93BF2535700F240600083
:10132000560030415F4257003FF007003F900700F2
:10133000EC37D2535700F23F0E430E9F042C034369
:101340001E530E9FFC2B30410B120A12E2C32100E8
:10135000E2D322003A4038133F4064008A12E2C3CD
:1013600022003F400A008A125F4220004B4F12C306
:101370000B101BE31BF33F400F008A120F4B3A4147
:0C1380003B4130410F123F4102DFFE3FB5
:10FFE0003A1172127412761278127A129C129E12C0
:10FFF000A012A212A412A612A812AA12AC120011E8
:0400000300001100E8
:00000001FF
