:10110000B240805A20013F4018133E4000023D404B
:1011100000020D9E0524FE4F00001E530E9DFB2B6A
:101120003F4000023D4008020D9F0524CF430000D0
:101130001F530F9DFB2B3040A01130403E11001378
:101140000E430E9F052C034303431E530E9FFB2BA0
:101150003041C2432100C2432900C2432600C2439A
:101160002E00F2432200F2432A003041C243000025
:10117000C2430200C24358003041A24204022F423F
:10118000B0128612F2D030005700F2D010002600C4
:10119000F2D010002200D2D32E00D2D32A00304148
:1011A0003140000AB240805A2001C2430202B0120C
:1011B0005211B0126C11B0127A11B012E4112E4318
:1011C0003B40B8125F4202021FF3FC273E53032448
:1011D000D2C30202F73F8B122E43D2E32100F83F25
:1011E00030401013B24004026001B2D02000600110
:1011F000B240205966013F400010034303430343BC
:1012000003430343034303430343034303430343AE
:10121000034303430343034303430343034303439E
:10122000034303430343034303430343034303438E
:10123000034303430343034303433F50E0FFDD23E2
:10124000B2D01000660132D23041001300130013F7
:1012500000130F12A2922E010B201F4276011F8253
:101260000602824F000292427601060292D30202E7
:101270003F41001300130013001300130013001369
:101280000013001300130E4F5F4257003FF007009A
:101290000F9E0E245F4257003FF007000E9F093457
:1012A000F25357005F4257003FF007000F9EF223B2
:1012B0003041D2535700F63FF290E2FF56001E2411
:1012C000F290050056000E24B290F4000002032CA8
:1012D000D25356003041B290F50000020228F2537A
:1012E000560030415F4257003FF007001F93F93B23
:1012F000F2535700F2406000560030415F42570001
:101300003FF007003F900700EC37D2535700F23F01
:081310000F123F4102DFFE3F16
:10FFE0003A114A124C124E125012521274127612D8
:10FFF00078127A127C127E12801282128412001100
:0400000300001100E8
:00000001FF
