:10110000B240805A20013F4040123E4000023D4024
:1011100000020D9E0524FE4F00001E530E9DFB2B6A
:101120003F4000023D4002020D9F0524CF430000D6
:101130001F530F9DFB2B3040741130403E110013A4
:101140000E430E9F052C034303431E530E9FFB2BA0
:101150003041C2432100C2432900C2432600C2439A
:101160002E00F2432200F2432A003041F2400300F5
:10117000570030413140000AB240805A2001B0127D
:101180005211B0126C11B012A011C2432400C2431C
:101190002C00C2432500C2432D00FF3F30403812CF
:1011A000B24004016001B2D020006001B24084026C
:1011B0008001B2D0200080019242900100021F42C3
:1011C00070013F500010824F7201B2401000620166
:1011D00032D23041001300130013001300130F121A
:1011E000B240800280011F429001B2500010720193
:1011F0003F90F773062CF29356000D24D2535600FD
:101200000A3C3F902D800628C29356000424F253D6
:101210005600013C0343A2D28001B2D020008001DD
:10122000D2E321003F410013001300130013001309
:1012300000130013001300130F123F4102DFFE3FA3
:10FFE0003A11D411D611D811DA11DC11DE11281210
:10FFF0002A122C122E123012321234123612001122
:0400000300001100E8
:00000001FF
