:10110000B240805A20013F40D4113E4000023D4091
:1011100000020D9E0524FE4F00001E530E9DFB2B6A
:101120003F4000023D4000020D9F0524CF430000D8
:101130001F530F9DFB2B3040741130403E110013A4
:101140000E430E9F052C034303431E530E9FFB2BA0
:101150003041C2432100C2432900C2432600C2439A
:101160002E00F2432200F2432A003041F2400300F5
:10117000570030413140000AB240805A2001B0127D
:101180005211B0126C11B012AE11C2432400C2430E
:101190002C00C2432500C2432D003B404011D2E346
:1011A00021003F40FF4F8B12FA3F3040CC113041BD
:1011B0000013001300130013001300130013001397
:1011C0000013001300130013001300130F123F410C
:0411D00002DFFE3FFD
:10FFE0003A11B011B211B411B611B811BA11BC1155
:10FFF000BE11C011C211C411C611C811CA1100111D
:0400000300001100E8
:00000001FF
